:020000021000EC
:10C0000000000120D92B0200012C0200032C0200A9
:10C01000052C0200072C0200092C02000000000081
:10C020000000000000000000000000000B2C0200D7
:10C030000D2C0200000000000F2C0200112C020049
:10C04000132C0200132C020071D80100132C0200E3
:10C05000132C0200132C0200CDD30100132C02007C
:10C06000132C0200132C0200132C0200132C0200CC
:10C07000132C0200132C0200132C0200132C0200BC
:10C08000132C020091C80100132C0200132C020093
:10C0900055C90100132C0200452B0200132C02008D
:10C0A000132C0200132C0200132C0200132C02008C
:10C0B000132C0200132C02000000000000000000FE
:10C0C000132C0200132C0200132C0200132C02006C
:10C0D000132C0200132C0200132C0200000000009D
:10C0E0000000000000000000000000000000000050
:10C0F0000000000000000000000000000000000040
:10C10000000000000000000000000000000000002F
:10C11000000000000000000000000000000000001F
:10C4000010B5054C237833B9044B13B10448AFF38E
:10C4100000800123237010BD0821002000000000CF
:10C42000B42D020008B5034B1BB103490348AFF319
:10C43000008008BD000000000C210020B42D020087
:10C44000154B002B08BF134B9D46A3F5803A0021E6
:10C450008B460F461348144A121A00F063F80F4B2C
:10C46000002B00D098470E4B002B00D0984700209F
:10C47000002104000D000D48002802D00C48AFF345
:10C48000008000F02BF82000290003F02BFC00F0C6
:10C4900011F800BF000008000000012000000000AB
:10C4A00000000000082100205029002000000000AA
:10C4B0000000000008B5074B044613B10021AFF39C
:10C4C0000080054B1868836A03B19847204600F046
:10C4D00031F800BF00000000702C020070B50D4E56
:10C4E0000D4CA41BA4100025A54209D10B4E0C4CE9
:10C4F00006F0B2FBA41BA4100025A54205D170BD17
:10C5000056F8253098470135EEE756F8253098471C
:10C510000135F2E700210020002100200021002049
:10C520000421002002440346934200D1704703F8DF
:10C53000011BF9E7FEE700BF2DE9F84F254B93F803
:10C5400000C0BCF1000F31D0DFF88CB0DFF88CA058
:10C55000DFF88C900024012703E00134E4B2644545
:10C5600024D226B2DBF80050DAF8003015F8360095
:10C5700007FA00F10B4205EBC608EED023EA0103EF
:10C58000CAF8003000F018FF15F83660D9F800300E
:10C5900007FA06F52B4000FA06F18B4208D00D4B46
:10C5A000013493F800C0E4B26445DAD3BDE8F88FF3
:10C5B00098F80110D8F80430A1F10101B1FA81F125
:10C5C0004909091AB1FA81F14909002BE7D030462F
:10C5D0009847E4E724210020542100205021002026
:10C5E0004C21002070B50646114800F0FBFC40B914
:10C5F000104D01242B68B440234203D023EA0404E5
:10C600002C6070BD304600F0D7FE0B490A6860B15F
:10C6100022432B6809480A601C4301682C600448C7
:10C620000022BDE8704000F077BC22EA0402F0E787
:10C630002C210020502100204C2100202821002006
:10C64000042A34D92DE9F04182B00F46064614463B
:10C6500000F078FD002834D01C4A1D4B1D4916609F
:10C660001F701D4A1D4B0C6000257C1E15601D604F
:10C67000E4B2F7B106EBC404194F083E4FF00308CB
:10C6800001E0B44215D0A37820788DF804803A46B2
:10C6900001A98DF806508DF807508DF8053000F08F
:10C6A0005BFD083C0028ECD002B0BDE8F08107201B
:10C6B00070470C4A0C48002100F01CFC02B0BDE899
:10C6C000F08100F00FFD0028C6D0EDE754210020D6
:10C6D00024210020282100204C210020502100206E
:10C6E000E5C5010039C50100742C020070B5084D84
:10C6F0002B785BB1074E00243368012113F8340016
:10C7000000F0F8FD2B780134A342F5D8002070BD6D
:10C71000242100205421002000B585B0002303907F
:10C72000194601AA44F20100ADF80430029300F06A
:10C7300003F805B05DF804FBBFF34F8F0549064BC6
:10C74000CA6802F4E0621343CB60BFF34F8F00BFAF
:10C75000FDE700BF00ED00E00400FA05484B494842
:10C7600030B401214FF480344FF400352F22C0F84B
:10C770008050C3F848431046C3F808435960013855
:10C7800000BF00BF00BF00BF00BF00BF00BF00BFB1
:10C7900000BF00BF00BF00BF00BF00BF00BF00BFA1
:10C7A00000BF00BF00BF00BF00BF00BF00BF00BF91
:10C7B00000BF00BF00BF00BF00BF00BF00BF00BF81
:10C7C00000BF00BF00BF00BF00BF00BF00BF00BF71
:10C7D00000BF00BF00BF00BF00BF00BF00BF00BF61
:10C7E00000BF00BF00BF00BF00BF00BF00BF00BF51
:10C7F00000BF00BFC3D1244C9960002310462360C2
:10C80000013800BF00BF00BF00BF00BF00BF00BFB6
:10C8100000BF00BF00BF00BF00BF00BF00BF00BF20
:10C8200000BF00BF00BF00BF00BF00BF00BF00BF10
:10C8300000BF00BF00BF00BF00BF00BF00BF00BF00
:10C8400000BF00BF00BF00BF00BF00BF00BF00BFF0
:10C8500000BF00BF00BF00BF00BF00BF00BF00BFE0
:10C8600000BF00BF00BF00BF00BF00BF00BF00BFD0
:10C8700000BF00BF00BFC3D1044A137030BC704773
:10C880000010014000E100E06C2100205D2100204B
:10C890002DE9F843274A284B0024C2F84041C2F84A
:10C8A0004441C2F84841C2F84C41C2F80041C2F8C4
:10C8B00004411B681BB32149D2F804550A68204F74
:10C8C000AD1A1A6825F07F45AA42A04609D8197CFE
:10C8D000DE69AD1A1444A1B91EB133461A68AA42E2
:10C8E000F5D91849184A0B7812789A4217D0174987
:10C8F000174A41F823404FF48013C2F80031BDE8D5
:10C90000F88383F81080D3E905933A6848461946BE
:10C9100062B190470028DFD0FFF7FEFEDCE7531C32
:10C92000DBB2022B08BF00230B70E0E71846C847B4
:10C93000D2E700BF00100140742100206C210020CC
:10C94000582100206921002068210020602100205A
:10C9500000E100E02DE9F04FA24AA34913780978DD
:10C96000DFF8A0B28BB0DBF800000690994200F02F
:10C9700037820133DBB2022B08BF002313709B4ABE
:10C9800052F82390069B4B4423F07F430793CBF848
:10C99000003001230593964B964A1978964B1268FE
:10C9A0001878964B09921B6801914FF0000E029087
:10C9B00003938C460490F24677469846CDF8209033
:10C9C0000CF1FF3C5FFA8CFCBCF1FF0F4CD00FFA6E
:10C9D0008CF308EBC30418F8333094F801904B45FE
:10C9E000EED003EB43006168A67811F830500133B4
:10C9F000DBB29E4208BF0023022D01EBC0010CD028
:10CA0000032DECD1002AEAD01774D269002AFBD199
:10CA100094F801904FF0010EE1E74D68002ADED056
:10CA20009542104601D111E00846C1690029D6D0CF
:10CA30008D42F9D185420AD0EE692D68C66116B1E2
:10CA400031682944316094F80190C8E71546D269ED
:10CA50004FF0010E002AEFD16949F246C1F808E013
:10CA6000CDF810E00792E7E7DDF82090BAF1000F6B
:10CA700040F0D081BEF1000F40F0C9815D4B059AB6
:10CA80001B680493002A40F08681099AD31A18BFC4
:10CA90000123059300234FF0000ADBF80040DFF884
:10CAA0006881049A51464FF0010E01980138C0B2D6
:10CAB000FF28019000F0AA800546039800EBC50509
:10CAC0005BB3D3E901C01F46DB69ACEB040626F07B
:10CAD0007F46464558D830443860C7E9011187F889
:10CAE00010E0F961002A5FD0166886426AD29C463F
:10CAF0009146334603E0336883426AD2B146D9F89F
:10CB00001C60C01A002EF6D16346B4463860C7F8E0
:10CB10001CC0C9F81C70002BD3D195F801C028782F
:10CB2000471C844500EB4006F8B2BED095F8029051
:10CB30006F682870814508BF297007EBC60B17F88E
:10CB4000366008BF0020012EEAD1DBF804703E7C7D
:10CB5000002EE5D1DBF808C0C7F804C0DBF80C00F4
:10CB6000B860B146DBF81060FE60DBF81460BE61AF
:10CB7000029E002EA9D0CC46ACEB040626F07F46E0
:10CB80004645C7F80490A6D9A4EB0C0C2CF07F4CBA
:10CB900084450DD2A0EB0C003860C7E9011187F87D
:10CBA00010E0F961002A9FD13A464FF0010A87E769
:10CBB000C7E90011B96087F810E0F961002AF3D0E5
:10CBC00016680020301A10604FF0010AFA613A46E8
:10CBD00076E79B466346B4465E46361ACCF800605C
:10CBE00094E700BF68210020692100206021002017
:10CBF00070210020742100205C2100207821002079
:10CC0000001001406C210020FEFF7F00BAF1000FF0
:10CC100040F0F480059B002B69D0049B002B00F0B2
:10CC2000EA80824A8249D2F804551E6808782B1B94
:10CC300023F07F43033300285FD09E422CBFA3190B
:10CC4000E3187A4923F07F43C1F84035D1F8042531
:10CC5000521B5B1B22F07F4223F07F4303329A4238
:10CC600045D9D1F80435C1F840352F20013800BF2F
:10CC700000BF00BF00BF00BF00BF00BF00BF00BFBC
:10CC800000BF00BF00BF00BF00BF00BF00BF00BFAC
:10CC900000BF00BF00BF00BF00BF00BF00BF00BF9C
:10CCA00000BF00BF00BF00BF00BF00BF00BF00BF8C
:10CCB00000BF00BF00BF00BF00BF00BF00BF00BF7C
:10CCC00000BF00BF00BF00BF00BF00BF00BF00BF6C
:10CCD00000BF00BF00BF00BF00BF00BF00BF00BF5C
:10CCE00000BFC3D1534B4FF40032C3F80021524A66
:10CCF000002313700BB0BDE8F08F4E484FF480371F
:10CD0000C2F844734FF4003CC2F804730127C0F822
:10CD100080C1C0F800C02F201760013800BF00BFDD
:10CD200000BF00BF00BF00BF00BF00BF00BF00BF0B
:10CD300000BF00BF00BF00BF00BF00BF00BF00BFFB
:10CD400000BF00BF00BF00BF00BF00BF00BF00BFEB
:10CD500000BF00BF00BF00BF00BF00BF00BF00BFDB
:10CD600000BF00BF00BF00BF00BF00BF00BF00BFCB
:10CD700000BF00BF00BF00BF00BF00BF00BF00BFBB
:10CD800000BF00BF00BF00BF00BF00BF00BF00BFAB
:10CD9000C3D10F7051E700201A46014603460646EC
:10CDA000DDE9057CAAB114684C451FD8D06816602F
:10CDB000A9EB04092144D46938B10CEB010525F035
:10CDC0007F45C2E90150D361134622463846002A06
:10CDD000E9D100283FF45FAE184904920A605AE690
:10CDE0004FF00009CDF814900790D4E5D0B9A4EB2A
:10CDF000090414604FE6FFF7B1FC78E70F4B1A60A7
:10CE0000049B9A4218BF04927FF407AF02E70B4BD2
:10CE10001A6033E6084B04981870079BCBF8003073
:10CE2000029027E6054904920A60E0E700100140FD
:10CE30005D21002000E100E05C2100207421002041
:10CE40002DE9F04112F0030639D1002A3AD00D46FF
:10CE500014461F468046FFF781FC05EB450204F1AE
:10CE60001801D2008B1861601A441949194862618F
:10CE7000E360194A194B0F600660194926800320A8
:10CE8000A5702681A5722682A57410701C60154AB3
:10CE9000154B164C0E704FF48010C0212670C3F84D
:10CEA000800183F814131860C2F80885104883F8CD
:10CEB0001113D2F8043503603046BDE8F081072035
:10CEC000BDE8F081054B1A600720BDE8F08100BF86
:10CED000582100207421002070210020782100209A
:10CEE000682100200010014000E100E069210020DD
:10CEF0006C210020074B1B683BB142B138B103687D
:10CF0000187C10B959745A6170470820704707207F
:10CF1000704700BF782100202E4B1B6823B318B345
:10CF200004291FD9F0B54469002C51D0447C012C50
:10CF30000CBF0E460026EFF30584C4F30804ACB121
:10CF4000103C65B2002D3ADB05F1604505F5614501
:10CF500095F800436409E4B2022C08D0062C05D1F0
:10CF6000083304E0072070470820704710335C78CE
:10CF700093F802C01F78651CEDB2AC4508BF0025D0
:10CF8000AF4223D004EB4404D3F804C0E4001CEB0C
:10CF900004071BD04FF0010E0CF804E0DFF840C08E
:10CFA0007860DCF804050C4CB860C7E903164FF450
:10CFB000801C7A615D70C4F800C10020F0BD074D8F
:10CFC00004F00F0425442C7E6409C4E70420F0BD5E
:10CFD0000820F0BD7821002000E100E0FCEC00E03A
:10CFE00000100140254B1B68002B39D0002837D09A
:10CFF0004269002A34D00022F0B40274EFF30582B3
:10D00000C2F308027AB1103A51B200292FDB01F1C4
:10D01000604101F5614191F800235209D2B2022A20
:10D0200002D0062A1ED010335A789D781C78511CE5
:10D03000C9B28D4208BF00218C4215D002EB4202DA
:10D040005C68D200A5180FD00D4E0227A7544FF4EC
:10D05000801268605970C6F800210020F0BC70474B
:10D06000082070470833DFE70420F0BC704705490B
:10D0700002F00F0211440A7E5209CFE77821002006
:10D0800000E100E0FCEC00E020B1034B5B6D0360CD
:10D0900000207047032070477C21002049010028B0
:10D0A00010B4C9B2C3B215DB00F1604202F56142AF
:10D0B00082F800134009800000F1604000F56140F3
:10D0C00003F01F0201239340C0F8803103605DF834
:10D0D000044B7047024A03F00F0422441176E9E73B
:10D0E000FCEC00E038B5154C94F8545025BB0621F3
:10D0F0004FF0FF330846C4E90033C4E90233C4E902
:10D100000433C4E90633C4E90833C4E90A33C4E983
:10D110000C33C4E90E33C4E91033C4E91233236578
:10D12000FFF7BCFF064A4FF000410123C2F8041389
:10D13000284684F8543038BD082038BDD42100205A
:10D1400000600040034B93F85400003018BF0120EA
:10D15000704700BFD4210020F0B4654B1C1894F92F
:10D160003050002D66DACE78002E5DD11D6A013573
:10D1700000F0AD8009240C2553F8247001375DD0F0
:10D1800004F1010C53F82C70013700F0AA8004F16F
:10D19000020CAC4545D253F82C70013700F0A18049
:10D1A00004F1030CAC453CD253F82C70013700F06D
:10D1B000988004F1040CAC4533D253F82C7001373D
:10D1C00000F08F8004F1050CAC452AD253F82C7086
:10D1D000013700F0868004F1060CAC4521D253F8EB
:10D1E0002C7001377DD004F1070CAC4519D253F8EF
:10D1F0002C70013775D004F1080CAC4511D253F8EE
:10D200002C7001376DD004F1090CAC4509D253F8EC
:10D210002C70013765D00A34AC4202D2DC6A01348A
:10D220000BD00420F0BC70471D6801355BD0012491
:10D230000825A1E70820F0BC70470B241F1865B231
:10D2400043F8242087F83050002E46D08A78B2B1B7
:10D25000820002F1A042D2F8004724F00204C2F892
:10D260000047CA780978B2B9083D2B44104693F8B4
:10D27000502042EA811183F85010F0BC70474C787E
:10D2800000F5E0724FF0A046A40046F82240CA78AC
:10D290000978002AE8D0AB0003F1804303F5C043CE
:10D2A0000002D3F8102522F4473222F44072C3F86A
:10D2B0001025090400F4F850D3F8102501F440318A
:10D2C00001431143C3F810150020F0BC7047082635
:10D2D00084F830601A62354634461C4484F84800AD
:10D2E000B4E76446AAE700251A6084F83050ADE739
:10D2F000D421002070B42E4D2E1883B096F9303012
:10D30000072B1CDD2B4493F848309B09032B41D09D
:10D31000012B14BF4FF440314FF40031800000F175
:10D32000A040D0F8002722F44032C0F80027D0F8FF
:10D3300000370B43C0F8003703B070BC7047DAB257
:10D34000072AF9D8980000F1804000F5C04003F1A9
:10D350004002D0F81045920092B244F0010402F16C
:10D360008042C0F8104502F5C04200200190019CA7
:10D3700010600029E0D096F9302055F82220002ACC
:10D38000DAD001220B4902FA03F3C1F8043303B0E7
:10D3900070BC70474FF0A0420123D2F810258340A3
:10D3A00013420CBF4FF400314FF44031B6E700BFD9
:10D3B000D4210020006000404FF0A043D3F8103586
:10D3C00023FA00F000F00100704700BF2DE9F043A0
:10D3D000BF4B1A68012A83B000F0AC810027BD4B17
:10D3E0001A68012A00F09881BB4B1A68012A00F0E4
:10D3F0008581BA4B1A68012A00F05C81B84B1A6823
:10D40000012A00F04981B74B1A68012A00F03681E1
:10D41000B54B1A68012A00F02381B44B1A68012A1F
:10D420000DD0B34B1B68012B00F09181002617F043
:10D43000FF0F15D1002F30DB03B0BDE8F083AD4AFC
:10D44000D2F804231406ECD500261E601A68009258
:10D450006033009A1B68012B47F0800700F077814A
:10D46000DFF8948201250024A30003F180432F42BA
:10D4700003F5C0434FEA45050AD0D3F81005D3F8A9
:10D48000101558F82430C0F30420C1F30141984727
:10D490000134082CE8D1002FCEDA974C94F95010C3
:10D4A000481C4FF0FF394FF000074FF0010800F023
:10D4B000AB80C9B221F0C00029FA00F515F00105D2
:10D4C0001BD02318890993F9303054F82330002BEE
:10D4D00000F05281032908FA00F500F05281820021
:10D4E00002F1A0423540D2F800C7CCF3014C40F025
:10D4F000AB80BCF1030F00F0838194F951104A1CFA
:10D5000022D0C9B221F0C00029FA00F3DB071BD5F5
:10D510002318890993F9303054F82320002A00F0A9
:10D520003A81032908FA00FE00F03A81830003F1F2
:10D53000A04316EA0E0FD3F800C7CCF3014C65D117
:10D54000BCF1030F00F0488194F95210481C22D01E
:10D55000C9B221F0C00029FA00F3DA071BD523185D
:10D56000890993F9303054F82320002A00F00B8108
:10D57000032908FA00FE00F00B81830003F1A043A9
:10D5800016EA0E0FD3F800C7CCF3014C48D1BCF11A
:10D59000030F00F0488194F953104B1C23D0C9B2FB
:10D5A00021F0C00029FA00F919F0010F1BD023184F
:10D5B000890993F9303054F82390B9F1000F00F045
:10D5C000D380032908FA00FC00F0D380830003F124
:10D5D000A04316EA0C0FD3F80027C2F3014229D169
:10D5E000032A00F0E080002D3FF426AF4FF0A04367
:10D5F000B946D3F810359E423FF41EAF94F950104F
:10D60000481C1E467FF455AF002576E7BCF1020F9B
:10D610009AD1032900F01B81002A95D0904793E707
:10D62000BCF1020FB7D1032900F01481002AB2D057
:10D630009047B0E7022AD6D1032900F00E81B9F154
:10D64000000F40F0C780CEE7BCF1020FDCD1032908
:10D6500000F006810025002B3FF44FAF98474CE7C0
:10D66000244AD2F8042355067FF5D7AE00221A606B
:10D670001B680093009B47F04007CEE61D4AD2F896
:10D68000042396067FF5C4AE00221A601B6800933F
:10D69000009B47F02007BBE6164AD2F80423D206C7
:10D6A0007FF5B1AE00221A601B680093009B47F023
:10D6B0001007A8E60F4AD2F8042311077FF59EAEA3
:10D6C00000221A601B680093009B47F0080795E64C
:10D6D0000061004004610040086100400C610040AE
:10D6E0001061004014610040186100401C6100405E
:10D6F0007C61004000600040D42100205A4AD2F8EA
:10D70000042350077FF575AE00221A601B68009352
:10D71000009B47F004076CE6534AD2F804239407B1
:10D720007FF562AE00221A601B680093009B47F0F1
:10D73000020759E64C4AD2F8047317F001073FF488
:10D740004EAE00221A601B680093009B47E6474BD1
:10D7500000221A601B6801934FF0A043019AD3F88E
:10D76000106547F0004762E603297FF43CAF08FAF2
:10D7700000FC47EA0C0729E703297FF445AF08FAC4
:10D7800000F52F43ABE603297FF405AF08FA00FE4E
:10D7900047EA0E07F1E603297FF4D6AE08FA00FE49
:10D7A00047EA0E07C2E603297FF449AF4FF4003C75
:10D7B000D3F8002722F44032C3F80027D3F800271B
:10D7C000013542EA0C02EDB2C3F80027B9F1000FAF
:10D7D0003FF40CAFC84706E703297FF41DAF4FF4B1
:10D7E000003ED3F800C72CF4403CC3F800C7D3F880
:10D7F00000C701354CEA0E0CEDB2C3F800C70BE7C9
:10D8000003297FF428AF4FF4003CD2F8005725F4E9
:10D810004035C2F80057D2F8005745EA0C05C2F867
:10D820000057012517E703297FF400AF4FF4003EAE
:10D83000D3F800C72CF4403CC3F800C7D3F800C7A6
:10D8400001354CEA0E0CEDB2C3F800C7EEE64FF41A
:10D85000403EC6E74FF4403EEAE74FF4403CA7E7BE
:10D860004FF4403CD1E700BF006000407C610040C5
:10D87000F0B59F4C237F85B0002B70D19D4AD2F824
:10D880000413890544D49B4BD3F8042352070ED5C7
:10D89000994A116859B1E17D002940F0F980116081
:10D8A000D3F81835637EE27D9A4200F0DC80934B1A
:10D8B0001A6892B1A18AA27D8A4200F2A08000205B
:10D8C000186052B1A3688DF800000193A0758DF81F
:10D8D0000820D4E9001368469847894B1A68AAB112
:10D8E000A27E00211960002A40F08480E37D6BB1A4
:10D8F000637EE2688DF808300192012300228DF8E2
:10D900000030E275D4E900136846984705B0F0BDD1
:10D910007C4908680028B6D0A07E0B604FF40173E4
:10D92000C2F8083328B903F1804303F5F05301220C
:10D930001A60704A02238DF80030D2F88034C2F8A1
:10D940008034E07DE268039300238DF808000192A3
:10D9500021686268E375684623769047A7E76949BE
:10D960000B68002B59D0634A002302200B608DF80E
:10D970000000D2F88014C2F880140391D2F83C154C
:10D98000E2688DF80810019221686268E3756846C4
:10D99000237690475A4B1A689AB1E17D00221A60AB
:10D9A00079B1A3F5A273E168D3F83C358DF808305E
:10D9B000012301918DF800306846D4E90013E27527
:10D9C0009847514B1A68002AA0D0A17D00221A6006
:10D9D00000299BD04749A368D1F84C158DF8081051
:10D9E00001938DF80020D4E90013A275684698478A
:10D9F00005B0F0BDA3F5A27301221A6076E70022FC
:10DA00001A60A28AA38AA0683A4992B20133825C62
:10DA10009BB2A382C1F81C255FE73C4A116800292C
:10DA2000B8D0344D1360D5F83C25E07DD2B2904299
:10DA3000B0D1227EE768D4E90016002A34D0D5F8A8
:10DA400000C2E2752CF02002C5F800224FF0010C54
:10DA500022698DF8080001978DF800C0684623768A
:10DA6000E260B04796E7237E43B3E268617E0192AD
:10DA70002569E375012200238DF808108DF8002038
:10DA80006846D4E90012E5602376637690470EE796
:10DA900000211160627ED3F81805637EE1680133CE
:10DAA000DBB288546376FDE601238DF80800019708
:10DAB0008DF800306846E275B0476BE7A37E13B976
:10DAC000134B01221A600B4AE06863684FF401713E
:10DAD000C2F80813627E8DF80820012201908DF8AB
:10DAE0000020216800226846E2759847DFE600BF03
:10DAF0002C22002000200040082100401C21004072
:10DB000044210040242100402021004010210040F9
:10DB10000420004029DF704728DF7047F0B54F4CE4
:10DB2000237883B0032B1ED8DFE803F05B792D1F29
:10DB30004B4D4C4B2A781B68009302EB820105EB9E
:10DB40008101494FCE684FF0140C06EB46060CFBE2
:10DB500002554B690979024605F10C0057F8265029
:10DB6000A8470423237003B0F0BD404B1868FFF7AB
:10DB7000D3FF0028F7D01128DAD13D4A136843F0CB
:10DB800008031360EFE7364D384E2B784FF0805185
:10DB900003EB8303086905EB830380B21A69B2FBC8
:10DBA000F0F030600E69DB883149013A1344B2B2BB
:10DBB000B3FBF2F398420A6836D02E4B1E6822F06F
:10DBC00003030B60002E34D12B4A02261670FFF798
:10DBD000A3FF0028C7D0112833D143F008030B60FE
:10DBE000C1E71F4B254D2648597800222A60026064
:10DBF0000029B8D01A781B4902EB820203EB82039A
:10DC00001A79DB880B60012A08D0ACD3033A012AC9
:10DC1000A9D803B0BDE8F04000F034B8227003B0DA
:10DC2000BDE8F04000F0B4BA22F0010242F0020276
:10DC30000A60114B00221A7003B0BDE8F04000F0FA
:10DC4000F9B92A78074B084F1B68009302EB820151
:10DC500005EB81014FF0140CCE6876E750230020CD
:10DC6000682200204C220020502200203423002073
:10DC7000382300203C230020512300204C23002087
:10DC8000482300202DE9F0414F4B504A1978504D60
:10DC900001EB810103EB81034FF08057DE681869C7
:10DCA000B3F806C01C89396906EB460302EB83030F
:10DCB0008AB2B3F808E05968B3F80A80B0FBF2F30F
:10DCC00008FB0E1E02FB130200210CEB04030344AD
:10DCD0002960002A36D0032E4FD03A693D4992B2CE
:10DCE0000444B4FBF2F002FB1040800808609E453B
:10DCF0003A6920D092B2B3FBF2F102FB1132D2B1F9
:10DD00004FF080501FFA8EF104690269A4B292B2FA
:10DD1000B1FBF4F19CB2B4FBF2F291424CD0036936
:10DD2000016989B2B4FBF1F201FB12429BB292B2DB
:10DD30009B1A9B082B60284B02221A70BDE8F04109
:10DD4000FFF7ECBE3A6992B2944516D09E4523D0B7
:10DD5000032E12D03A691F4992B20444B4FBF2F088
:10DD600002FB1040800808603A6992B2B3FBF2F1FE
:10DD700002FB1132002ADED0C2E74FF08053174A6F
:10DD80001B69154903249BB20C70B0FBF3F01060C3
:10DD9000BDE8F041FFF7C2BE002CEED0032EECD060
:10DDA0003A690C49204492B2B0FBF2F302FB130330
:10DDB0009B080B603B69BEE71FFA8EFEAEEB0403C7
:10DDC0009B082B60B7E700BF68220020502200208C
:10DDD000542300203C230020502300203423002023
:10DDE000F0B54FF08052244B10691B684FF01021A2
:10DDF000013B496980B200FB03F04B1C14BF13695F
:10DE000051691E4A1CBF9BB2B1FBF3F14FF0805326
:10DE100001391B6912689BB283B001FB03F1FFF764
:10DE200079FE30B1112806D1154A136843F0080372
:10DE3000136003B0F0BD134C134B22781B680093A2
:10DE400002EB820104EB81011427CD680F4E4B6970
:10DE5000097905EB450507FB0244024604F10C0075
:10DE600056F82540A0470A4B04221A7003B0BDE8BB
:10DE7000F040FFF753BE00BF342300203C230020B6
:10DE800038230020682200204C220020502200204D
:10DE900050230020F0B54FF0102383B058694FF0A5
:10DEA0008053421C16BF1B6958699BB24FF08052C9
:10DEB00018BFB0FBF3F01D4B1469196813691269A0
:10DEC0000138A4B29BB204FB00F0C2F38D0201FB47
:10DED00003F1FFF71FFE30B1112806D1144A136871
:10DEE00043F00803136003B0F0BD124C124B2278CC
:10DEF0001B68009302EB820104EB81011427CD68BB
:10DF00000E4E4B69097905EB450507FB02440246B5
:10DF100004F10C0056F82540A047094B04221A7062
:10DF200003B0BDE8F040FFF7F9BD00BF3423002087
:10DF300038230020682200204C220020502200209C
:10DF400050230020084A1368190708D507480849D4
:10DF5000007823F0080351F8201013600847034BA2
:10DF600001221A70FFF796BF3823002051230020AA
:10DF7000782C0200F0B5294C237803EB830304EBE3
:10DF800083034FF080521D69D8881E8911694FF0B4
:10DF9000102330445B69284489B2B0FBF1F501FBE2
:10DFA00015015D1C4FF0805514BF126953692D692E
:10DFB0001CBF92B2B3FBF2F3194A013BADB283B07E
:10DFC000126803FB0511FFF7A5FD30B1112806D13A
:10DFD000144A136843F00803136003B0F0BD2278BD
:10DFE000114B124E1B68009302EB820104EB81017E
:10DFF0001427CD684B69097905EB450507FB0244F9
:10E00000024604F10C0056F82540A047084B0422B4
:10E010001A7003B0BDE8F040FFF780BD6822002011
:10E0200054230020382300204C22002050220020BE
:10E0300050230020F0B54FF0102383B058694FF003
:10E040008053421C14BF1B6958694FF080521CBF9B
:10E050009BB2B0FBF3F01369126901389BB203FB6A
:10E0600000F092B2B0FBF2F0FFF756FD30B111288C
:10E0700006D1134A136843F00803136003B0F0BDE0
:10E08000104C114B22781B68009302EB820104EBC9
:10E0900081011427CD680D4E4B69097905EB4505C3
:10E0A00007FB0244024604F10C0056F82540A04745
:10E0B000074B04221A7003B0BDE8F040FFF72EBDF5
:10E0C00038230020682200204C220020502200200B
:10E0D00050230020F0B5274A136813F0080483B0DA
:10E0E0000BD025482549007851F8201023F008036B
:10E0F000136003B0BDE8F0400847214D287800EBDD
:10E10000800305EB8303197904292FD01D4FDA68AA
:10E110003F685B691C4E009702EB4202142707FB25
:10E12000005056F822600C302246B0472B7803EBA3
:10E13000830205EB82020133C2F80640DBB2697844
:10E1400014710A2B4FF0020001F1FF3118BF2B7040
:10E150000E4BD060C2E90444697008BF2C700022E5
:10E160001A7003B0BDE8F040FFF7D8BC074B01229E
:10E17000F6E700BF3823002051230020782C02004E
:10E18000682200204C220020502200205023002032
:10E190002DE9F041404C2678B500AB194FF0805C7A
:10E1A00004EB8303DCF81070DA881889D3F810E0E8
:10E1B0005969BBB29A4282B0704413D89208FFF7F3
:10E1C000A9FC30B111282AD1344A136843F008035E
:10E1D0001360354404EB8504314BE2881A6002B0C9
:10E1E000BDE8F081DCF81030DCF810509BB2D31A97
:10E1F00019441844C5F38D02FFF78CFC30B1112887
:10E200002CD1264A136843F0080313604FF0805363
:10E21000234A1B699BB2136002B0BDE8F0812278EB
:10E22000204BDFF888E01B68009302EB820104EBCF
:10E2300081014FF01408CF684B69097907EB470C4F
:10E2400008FB02485EF82C70024608F10C00B84743
:10E25000154B04221A70FFF761FCBAE72278114BC4
:10E26000124E1B68009302EB820104EB810114271C
:10E27000CD684B69097905EB450507FB0244024669
:10E2800004F10C0056F82540A047074B04221A70F1
:10E29000FFF744FCBAE700BF6822002038230020C3
:10E2A000482300204C220020502300205022002030
:10E2B00022490B68180708D52148224A007823F024
:10E2C000080352F820200B601047F0B51E489A074B
:10E2D0001B4A006848BF43F0010383B04FF00204BB
:10E2E00048BF0B601470FFF717FC20B1112804D150
:10E2F00043F008030B6003B0F0BD144C144B2278BC
:10E300001B68009302EB820104EB81011427CD68A6
:10E31000104E4B69097905EB450507FB024402469F
:10E3200004F10C0056F82540A0470B4B04221A704C
:10E3300003B0BDE8F040FFF7F1BB00BF3823002079
:10E3400051230020782C0200342300206822002072
:10E350004C22002050220020502300202DE9F043C1
:10E360005B490B6813F0080683B00BD059485A4A32
:10E37000007852F8202023F008030B6003B0BDE8BA
:10E38000F0431047554C564A94F800E01568554A3A
:10E390004FEA8E0C0CEB0E0704EB870710683A6906
:10E3A000B7F80690B7F80880013A4FF080574A4412
:10E3B00042443F6925B1BFB2B2FBF7F787425ED056
:10E3C0004FF080563669B6B2B2FBF6F2904245D3B2
:10E3D00042D0002D38D1F44404EB8C0C9CF804108E
:10E3E000042958D04048DCF80C200068DCF81430D0
:10E3F0003E4E009002EB4202142000FB0E4056F805
:10E4000022600C302A46B047237803EB830204EBEA
:10E4100082020133C2F80650DBB2617815710A2B13
:10E420004FF0020001F1FF3118BF2370304BD06074
:10E43000C2E90455617008BF257000221A7003B04C
:10E44000BDE8F043FFF76ABB224B03221A7003B00A
:10E45000BDE8F043FFF78EBD002DF5D1254D1D4AD7
:10E4600000262E6002251570FFF756FB20B11128FB
:10E4700014D143F008030B6003B0BDE8F0831D48DE
:10E48000144A066043F001030B60167003B0BDE848
:10E49000F043FFF7CFBD164B0122CFE72278124B96
:10E4A000124E1B68009302EB820104EB81011427DA
:10E4B000CD684B69097905EB450507FB0244024627
:10E4C00004F10C0056F82540A047094B0422B5E79B
:10E4D0003823002051230020782C020068220020DD
:10E4E00054230020342300204C22002050220020FE
:10E4F000502300203C23002055490B681A0708D5FB
:10E500005448554A007823F0080352F820200B6045
:10E510001047F0B5514A524C10682468013083B05E
:10E52000106034BB4F4C277807EB870504EB85055B
:10E530004FF080562A69B5F806E03669B5F808C08C
:10E54000013A72446244B6B2B2FBF6F290421AD378
:10E55000454A166815D05EB313F0010220D13D483C
:10E5600043F001030B60027003B0BDE8F040FFF719
:10E5700061BD384B04221A7003B0BDE8F040FFF7CC
:10E580002FBC002EE8D1334A02251570FFF7C4FADC
:10E5900020B111283FD143F008030B6003B0F0BD58
:10E5A0002C4B03221A7003B0BDE8F040FFF7E2BC29
:10E5B0002979042949D02D48EA6800686B690090E0
:10E5C00002EB42022A4D142000FB074055F822506E
:10E5D0000C303246A847237803EB830204EB820217
:10E5E0000133C2F80660DBB2617816710A2B4FF076
:10E5F000020001F1FF3118BF23701E4BD060C2E949
:10E600000466617008BF267000221A7003B0BDE86E
:10E61000F040FFF783BA2278144B154E1B68009325
:10E6200002EB820104EB81011427CD684B69097963
:10E6300005EB450507FB0244024604F10C0056F8C1
:10E640002540A0470B4B0422DFE70A4B0122DCE701
:10E650003823002051230020782C0200342300208E
:10E660003C23002068220020542300204C2200205C
:10E670005022002050230020F0B5164B83B01868BC
:10E68000FFF74AFA30B1112806D1134A136843F054
:10E690000803136003B0F0BD104C114B22781B68C7
:10E6A000009302EB820104EB81011427CD680D4E2B
:10E6B0004B69097905EB450507FB0244024604F165
:10E6C0000C0056F82540A047074B04221A7003B0EF
:10E6D000F0BD00BF34230020382300206822002032
:10E6E0004C22002050220020502300202DE9F04130
:10E6F0007A4D2B7813F0FB0F82B01DD00228044610
:10E7000014D0032818D176490A68100717D5022BB0
:10E7100000F08280032B01D0012B0DD122F00802E2
:10E720000A6002B0BDE8F041FFF7F8B9022B73D0E0
:10E73000032B74D0012B14D002B0BDE8F0816949DD
:10E740000A680132B2F57A7F0A6049D0022BE8D11B
:10E75000654A664B127853F8223002B0BDE8F041AA
:10E7600018475F4A13681E0700F1A780604E614B8F
:10E7700030781B6800EB800206EB8202D788FF1A14
:10E78000BFB2D780002F40F09C80DFF86C81D2F8B8
:10E790000CC053691179D8F800200092DFF85CE1D1
:10E7A0000CEB4C0C142202FB00605EF82C803A4605
:10E7B0000C30C047337803EB830206EB820201334F
:10E7C000C2F8067071781771DBB201390A2BC2E901
:10E7D00003475761337071706CD000232B70A0E732
:10E7E000434E454B32781B68009302EB820106EBE7
:10E7F00081014FF0140CCC68404F4B69097904EB50
:10E8000044040CFB026202F10C0057F824400D2274
:10E81000A04704232B7084E7334A394B9AE7304AE8
:10E8200013681C0749D4324E364F3078396884005B
:10E83000221806EB820201311369B2F806E0B2F841
:10E8400008C039604FF08052013B12697344634441
:10E8500092B2B3FBF2F39942FFF463AF39D02318BD
:10E8600006EB83031979042930D0234FDA683F6817
:10E870005B69224C009702EB4202142707FB006001
:10E8800054F822400C300022A047337803EB830277
:10E8900006EB82020021C2F8061070781171013374
:10E8A000DBB2022401380A2BC2E903415161337003
:10E8B000707092D1002333708FE723F00803136048
:10E8C0002FE702B0BDE8F041FFF762BC01232B70D7
:10E8D00027E70D4B1B68002BC1D122E750230020F6
:10E8E000382300204C23002051230020782C0200E4
:10E8F00068220020482300204C22002050220020C3
:10E900008C2C020034230020542300203B4B70B495
:10E910003B4C3C4E3C4D002202214FF010201A800F
:10E920001A71C3E90422C3F806201A76C3E9092242
:10E93000C3F81A2083F82C20C3E90E22C3F82E2036
:10E9400083F84020C3E91322C3F8422083F85420FF
:10E95000C3E91822C3F8562083F86820C3E91D22B2
:10E96000C3F86A2083F87C20D960196259639964DE
:10E97000D96519672280C3F884104069C3F87E20E6
:10E98000C3E92612C3E92B12C3E93012C3E92222DC
:10E9900083F89020C3F8A020C3F8922083F8A42025
:10E9A000C3F8B420C3F8A62083F8B820C3F8C82061
:10E9B000C3F8BA204FF08053421C14BF1B6958693A
:10E9C000124A1349134C1CBF9BB2B0FBF3F04FF03B
:10E9D000805303381B699BB203FB00F010600E4BA1
:10E9E0000E4A002008700421306028602060186002
:10E9F000C3E902005861116070BC704768220020B2
:10EA000040230020342300204C23002044230020F6
:10EA100050230020482300205022002038230020CB
:10EA2000374B1B685B0766D500285FD000295DD097
:10EA30000368002B5AD02DE9F0434FF080548388AF
:10EA4000226992B2934253D80F2B51D9C588002D19
:10EA50004ED04FF010224FF0805C5269294EB2F137
:10EA6000FF3F14BF2469626937681CBFA4B2B2FBC0
:10EA7000F4F2DCF81040013AA4B203FB057504FB84
:10EA800002F2954234D813F0030331D11E4D2C8885
:10EA9000022C32D0DFF874800C6004EB440E4FEA95
:10EAA0008E0E08EB0E024F605760026848F80E2089
:10EAB0000EF1080E41688288B0F8069048F80E10F2
:10EAC000DCF810E0DCF81000DCF810101FFA8EFC07
:10EAD00009FB02C289B280B20134013A92FBF0F222
:10EAE00001FB0277184637602C8002E00E20704749
:10EAF0000720BDE8F083082070470420F9E700BF35
:10EB000038230020442300204023002050220020EE
:10EB1000134B1B685B0720D5D0B1CAB170B4046831
:10EB2000012C17D804EB44039D000E4B5E592B4477
:10EB300086B11D89466858895B6805FB016105FB44
:10EB40000033994206D2C2E90041002070BC7047F0
:10EB50000E207047072070BC70470820704700BF28
:10EB60003823002050220020F8B5354C2468670770
:10EB700048D5002942D0002840D00468012C3FD855
:10EB800004EB4404A4002F4D2E592C44002E37D002
:10EB9000268965896468476806FB0544A7422FD229
:10EBA00072B396422CD3D418A64229DB8E072BD100
:10EBB0009D0729D1BC0727D1234E74780A2C37D062
:10EBC0003778DFF88CE0E519092DC8BF0A3D05EB61
:10EBD000850506EB85054FF0010C85F804C06961D9
:10EBE00003C8A4449EF80040EA802B810C3585E8D8
:10EBF000030086F801C04CB10020F8BD0E20F8BD1E
:10EC00000720F8BD0820F8BD1020F8BD07EB8707E6
:10EC100006EB87060D4A3379F1881160012B09D084
:10EC2000EAD3033B012BE7D8FFF72CF82046F8BDC9
:10EC30000420F8BD8EF80030FEF770FF2046F8BDC6
:10EC40003823002050220020682200204C2200207F
:10EC500050230020F8B5364C2468670749D50029B1
:10EC600043D0002841D00468012C40D804EB440470
:10EC7000A400304D2E592C44002E38D026896589A9
:10EC80006468476806FB0544A74230D27AB39642CF
:10EC90002DD3D418A6422ADB8E072CD19D072AD16A
:10ECA000BC0728D1244E74780A2C38D03778DFF886
:10ECB00090E0E519092DC8BF0A3D05EB850506EB77
:10ECC00085054FF0040C85F804C0696103C804F1A0
:10ECD000010C9EF80040EA802B810C3585E803008A
:10ECE00086F801C04CB10020F8BD0E20F8BD072009
:10ECF000F8BD0820F8BD1020F8BD07EB870706EB2C
:10ED000087060E4A3379F1881160012B09D0EAD3C6
:10ED1000033B012BE7D8FEF7B5FF2046F8BD0420E2
:10ED2000F8BD8EF80030FEF7F9FE2046F8BD00BFB2
:10ED30003823002050220020682200204C2200208E
:10ED4000502300202DE9F041244C2468660782B04E
:10ED50003ED5A9B3A0B30C68012C35D804EB44040C
:10ED6000A4001F4E3559344475B3278965896468FA
:10ED7000D1F804C007FB0544A44525D222B397422D
:10ED800022D3D418A7421FDB850725D19C0723D1A6
:10ED90001CF0030420D10F4603EB0C0190460546FE
:10EDA00003F047FF3A68CDF8008002EB42022B46A1
:10EDB000384656F8225002212246A847204600E055
:10EDC0000E2002B0BDE8F081072002B0BDE8F0815E
:10EDD000082002B0BDE8F0811020F2E738230020BF
:10EDE00050220020F8B5374B1B685F0749D5002833
:10EDF00049D00368012B42D803EB43039B00324AFE
:10EE00000C46D1581344002939D05A681D895B89B2
:10EE1000416805FB0323994231D28E0735D18A1A06
:10EE2000B2FBF5F605FB16224ABBB4FBF5F205FB77
:10EE30001245ADB21DBB14B321448B421FD3234DE9
:10EE40006E780A2E35D02F78DFF888C0F219092A9B
:10EE5000C8BF0A3A02EB820205EB820203210023BB
:10EE60001171536103C8D4809CF8004013810136AE
:10EE70000C3282E803006E704CB10020F8BD072010
:10EE8000F8BD0820F8BD0E20F8BD1020F8BD07EB36
:10EE9000870705EB87050E4A2B79E9881160012B5E
:10EEA00009D0EAD3033B012BE7D8FEF7EBFE20465F
:10EEB000F8BD0420F8BD8CF80030FEF72FFE204688
:10EEC000F8BD00BF38230020502200206822002017
:10EED0004C22002050230020064B1B685B0705D501
:10EEE00030B1054B5B780360002070470820704705
:10EEF0000E20704738230020682200204FF0A042E7
:10EF0000D2F80435D94301F4002103F40023C2F8F8
:10EF10000815C2F80C3570470D282DE9F04707D0C9
:10EF20000E2837D00F2837D0102837D0BDE8F0870B
:10EF30000025012904461ED010D30229F6D1204B0A
:10EF400005EB45051D446E78002EEFD01D4B1B6868
:10EF5000002BEBD03046BDE8F04718471A48FEF7C3
:10EF600041F8174B194A05EB45010B44525D9E7859
:10EF7000B242DBD1E8E7124F4FEA450808EB050340
:10EF8000FA18FE5C53785BB9A84447440F4BBA7833
:10EF90005A55D9E70125CCE70225CAE70325C8E77A
:10EFA0000B4BDFF830901968074801EB81014900ED
:10EFB0004A46FDF7B1FF0028E6D189F80040E3E7B3
:10EFC000A4230020D423002084230020DC2300205D
:10EFD000802300205823002038B5CF4B1B68DB0767
:10EFE00000D438BDCD4B1C78172CFAD8DFE814F0CC
:10EFF000680075007500AE00D500F5001A013D01EE
:10F0000039001800390018002F005001500150013C
:10F01000500150014E0058009E0077012F002F0034
:10F020004FF0A042BE4CD2F80435BE48D94301F49B
:10F03000802103F48023C2F80815C2F80C3521683A
:10F04000002201EB8101BDE83840FDF765BF4FF0BC
:10F05000A0434FF4F0110022C3F80C15C3F80825A3
:10F0600038BD4FF0A042AE4CD2F80435AD48D9437C
:10F0700001F4802103F48023C2F80815C2F80C358E
:10F0800021680022BDE83840FDF746BF4FF0A0439D
:10F090004FF4F0110022C3F80815C3F80C2538BD51
:10F0A0004FF0A04300224FF4E0104FF40031C3F8BA
:10F0B0000805C3F80C25C3F80C15C3F8082538BD9E
:10F0C000994B1B684FF0A042DB4303F4F01300217F
:10F0D000C2F80835C2F80C1538BD934A12684FF0D3
:10F0E000A040D24302F4E0120025C0F80825C0F881
:10F0F0000C55D0F8042582F4F01212F4003200F01E
:10F100003781022C4FF40032C0F8082514BF2821A3
:10F110001221C0F80C55824A1C701268814802FB0B
:10F1200001F1BDE838400022FDF7F6BE4FF0A043E4
:10F1300000224FF4D0104FF48021C3F80805C3F823
:10F140000C25C3F80C15C3F8082538BD764A12689B
:10F150004FF0A040D24302F4E0120024C0F808258A
:10F16000C0F80C45D0F8042582F4F01212F40032F5
:10F1700000F0F6804FF40032C0F808250821C0F8EE
:10F180000C45674A6748126803241C7002FB01F1B2
:10F19000BDE838400022FDF7BFBE634A12684FF059
:10F1A000A040D24302F4E0120024C0F80825C0F8C1
:10F1B0000C45D0F8042582F4F01212F4003200F06D
:10F1C000C0804FF40032C0F808252821C0F80C4553
:10F1D000534A544812680424D7E7534A12684FF040
:10F1E000A041D24302F4E0120020C1F80825C1F882
:10F1F0000C05D1F8042582F4F01212F4003200F06C
:10F20000A8804FF40032C1F80825C1F80C05444A23
:10F210004448116805241C7049000022BDE83840AC
:10F22000FDF77ABE404A12684FF0A041D24302F483
:10F23000E0120020C1F80825C1F80C05D1F804251A
:10F2400082F4F01212F4003274D04FF40032C1F89C
:10F250000825C1F80C05324A3248116806241C7092
:10F260000022BDE83840FDF757BE2F4B1B684FF01A
:10F27000A042DB43002103F4E0134FF40030C2F856
:10F280000835C2F80C15C2F80C05C2F8081538BDCF
:10F290002648FDF7A7FED4F1110402462FD070BB1B
:10F2A000214D4FF40023012C2B6010D020481C4925
:10F2B000C82303FB04F3A0FB030309681B485B0995
:10F2C00001FB03F1FDF728FE2B6803F4F0134FF068
:10F2D000A0420021C2F80C35C2F8081538BD4FF025
:10F2E000A04300224FF4C0104FF4C021C3F808051A
:10F2F000C3F80C25C3F80C15C3F8082538BD0A4A15
:10F3000013684FF0A040002103F4F013C0F8083553
:10F31000C0F80C15116038BDB0230020D8230020A0
:10F3200080230020B42300205C23002060230020E1
:10F330001F85EB514FF40030C1F80C05C1F80825CA
:10F3400089E74FF40031C0F80C150421C0F80825F6
:10F350003EE74FF40030C1F80C05C1F8082556E728
:10F360004FF40031C0F80C150221C0F8082508E759
:10F370004FF40031022CC0F80C1514BF04210221F7
:10F38000C0F80825C7E600BF03780D2B15D00E2B5B
:10F3900015D00F2B04D0102B08BF032301D07047CA
:10F3A0000223084A03EB4303134458780028F6D09D
:10F3B000054B1B68002BF2D018470023F1E701230F
:10F3C000EFE700BFA4230020D4230020032803D9A3
:10F3D00000230B7000207047074A4FF0A04352F8FB
:10F3E0002000D3F8102501238340934314BF012349
:10F3F00000230B7000207047C82C020038B5BF4BAB
:10F400001A6812F0010201D1104638BD03461728D0
:10F4100000F2EB81DFE810F03901490149017C007D
:10F42000A400CC00F20058002F0018002F00180094
:10F4300017017C017C017C017C017C01A501250177
:10F440002F0144006F006F004FF0A042AC4CD2F887
:10F450000435AC48D94301F4802103F48023C2F879
:10F460000815C2F80C352168002201EB8101BDE8C6
:10F470003840FDF751BD4FF0A042A14CD2F8043501
:10F48000A048D94301F4802103F48023C2F8081571
:10F49000C2F80C3521680022BDE83840FDF73CBDBC
:10F4A00099484FF0A0434FF4C01500214FF4C022FB
:10F4B0001524C3F80855C3F80C15C3F80C25C3F878
:10F4C00008150A4604709FE7904B8F4C1B684FF05D
:10F4D000A041DB4300204FF4003203F4E013072582
:10F4E000C1F80835C1F80C05C1F80C25C1F80805AC
:10F4F0000246257088E74FF0A041834C4FF4F0128C
:10F500000020C1F80C25C1F80805024623707BE7EE
:10F510007E4B1B684FF0A042DB4303F4E013002056
:10F52000C2F80835C2F80C05D2F8043583F4F0139C
:10F5300013F4003300F042814FF40033C2F8083571
:10F540000821C2F80C056E4A6F4B12686D480324FF
:10F550001C7002FB01F1BDE838400022FDF7DCBC65
:10F560006A4B1B684FF0A042DB4303F4E01300201A
:10F57000C2F80835C2F80C05D2F8043583F4F0134C
:10F5800013F4003300F022814FF40033C2F8083541
:10F590002821C2F80C055A4A5B4B126859480424CA
:10F5A0001C7002FB01F1BDE838400022FDF7B4BC3D
:10F5B000564B1B684FF0A042DB4303F4E0130021DD
:10F5C000C2F80835C2F80C15D2F8043583F4F013EC
:10F5D00013F4003300F002814FF40033C2F8083511
:10F5E000C2F80C15464A484B1168464805241C7061
:10F5F00049000022BDE83840FDF78EBC434B1B6834
:10F600004FF0A042DB4303F4E0130021C2F80835B9
:10F61000C2F80C15D2F8043583F4F01313F4003358
:10F6200000F0BA804FF40033C2F80835C2F80C1568
:10F63000354B334A3348116806241C700022BDE85C
:10F640003840FDF769BC4FF0A0432F484FF4F0124B
:10F6500000210C24C3F80C25C3F808150A460470D1
:10F66000D2E64FF0A04328484FF4E01500214FF4B4
:10F67000003213241DE74FF0A04323484FF4D01568
:10F6800000214FF48022142413E7204B1E4C1B68EA
:10F690004FF0A040DB43002103F4F013C0F808351D
:10F6A0000A46C0F80C152170AEE6184A12684FF0F1
:10F6B000A040D24302F4E0120024C0F80825C0F8AC
:10F6C0000C45D0F8042582F4F01212F400326AD00E
:10F6D000022B4FF40032C0F8082514BF2821122154
:10F6E000C0F80C45064A084C1268237002FB01F171
:10F6F00004480022BDE83840FDF70EBCB0230020CE
:10F7000080230020B4230020D82300205C23002085
:10F7100004463748FDF766FCD4F1110302462ED0AB
:10F7200068BB344C4FF40021012B216011D0C8215B
:10F730003148324D01FB03F3A5FB031301682C484C
:10F740005B0901FB03F1FDF7E7FB2168024601F4C9
:10F75000F0114FF0A0430020C3F80C15C3F80805C2
:10F7600052E64FF0A04326484FF4F0120021122435
:10F77000C3F80825C3F80C150A46047044E61D4971
:10F780000B684FF0A044002003F4F013C4F80835D0
:10F79000C4F80C05086037E64FF40031C2F80C15C8
:10F7A000C2F8083544E74FF40031022BC0F80C15BD
:10F7B00014BF04210221C0F8082593E74FF400315B
:10F7C000C2F80C150221C2F80835BCE64FF400312E
:10F7D000C2F80C150421C2F80835DCE64FF40031FC
:10F7E000C2F80C15C2F80835FCE600220CE600BF92
:10F7F000602300205C230020802300201F85EB5124
:10F80000D823002038B5264C264D274B206000F029
:10F81000010410F0020029601A6010D0234B244824
:10F820000E254A080D211970DD700F2110259971E0
:10F830005D720421FCF704FFD0B11CBB38BD4CB194
:10F840004FF0A0434FF4F012C3F80825C3F80C059D
:10F85000C3F81825174A18480021FDF74BFB00286C
:10F86000ECD1164A16480121BDE83840FDF742BBED
:10F87000FCF73CFF0028E0D10146124A1248FDF790
:10F8800039FB54B14FF0A0434FF4F0120021C3F8FC
:10F890000825C3F80C15C3F818250028DAD038BDA0
:10F8A000B023002080230020D4230020A4230020A4
:10F8B000A02C0200D9EF0100D82C0200FDEE0100BF
:10F8C000C02C020089F30100C42C0200032811D8C7
:10F8D000012A0BD0012919D00ED302290AD10E4BCF
:10F8E00000EB4000034400205A70704701290AD001
:10F8F0000022EFE707207047074B00EB400003446E
:10F9000000209A70704700F10D02D2B200EB400364
:10F9100001490020CA547047A423002030B41B4979
:10F920001B4DD1F800271B4C10F0010318BF4FF4FA
:10F93000403322F440321343C1F80037D5F8002792
:10F9400010F0020322F4403218BF4FF44033134347
:10F95000C5F80037D4F8002710F0040318BF4FF49F
:10F96000403322F440321343C4F80037D1F80C3747
:10F9700010F0080018BF4FF4403023F44033184310
:10F98000C1F80C0730BC0020704700BF34000050A5
:10F99000380000503C00005008B50320FFF7BEFFC0
:10F9A00010B1062808BF002008BD00BF10B50388AD
:10F9B000102B07D0112B04D1254B18680138186083
:10F9C00030B110BD224C216881B10131216010BDE0
:10F9D00001220221FFF77AFF38B3072825D01D4BFB
:10F9E0001B68002BEDD0BDE81040184701220846E7
:10F9F000FFF76CFF38B1072805D0164B1B6803B121
:10FA000098472168E1E7072202210120FFF75EFF06
:10FA100008B10728F1D1042202210020FFF756FF88
:10FA20000028EED00728E8D1EBE7072202210120C9
:10FA3000FFF74CFF08B10728D1D1002108460A2260
:10FA4000FFF744FF0028BCD00728C8D110BD00BF75
:10FA5000E4230020E023002010B5204B82B0186082
:10FA600051B10C4600200DF10601FFF7AFFC10B3B9
:10FA700002B010BD02232370194B186810B100208A
:10FA800002B010BD01220221FFF720FF08B10728B4
:10FA9000EED1072202210120FFF718FF08B1072845
:10FAA000E6D1002108460A22FFF710FF0028E6D021
:10FAB0000728DDD1E3E70DF107010120FFF786FC00
:10FAC0000028D5D19DF80730002BD3D19DF8063002
:10FAD0000BB92370D0E70B232370CDE7E023002080
:10FAE000E423002076DF70477ADF70477CDF7047C1
:10FAF0003CDF704748DF704753DF70470AB900208A
:10FB0000704708B51046FCF707FE002008BD00BF8F
:10FB1000FCF702BE00B583B002A8002340F8043D04
:10FB2000FFF7EAFF03229DF904106846FCF7FAFC90
:10FB30006946094800F04EFB4FF0A042D2F8043568
:10FB4000D94301F4802103F48023C2F80815C2F8D8
:10FB50000C3503B05DF804FB2429002010B5114CCE
:10FB6000114B216882B003EBC1010822684603F003
:10FB700060F869460D4800F007FB4FF0A042D2F84C
:10FB80000435D94301F4801103F48013C2F8081539
:10FB9000C2F80C352368013303F00103236002B07F
:10FBA00010BD00BFF8250020E820002024290020F7
:10FBB00010B50446FEF79AFD2046BDE8104001F05E
:10FBC000CFBC00BF08B5037803B108BD054B3B218E
:10FBD0001888FFF787FF0028F7D0BDE80840FCF73A
:10FBE0009BBD00BFE420002010B5044602F008FAD7
:10FBF000204601F0F3FD2046FFF7D8FE2388102BA6
:10FC000012D0112B03D10D4B4FF6FF721A802046F4
:10FC100001F02CFC21460A4800F0B2F921460948BF
:10FC2000BDE8104000F004BB0720FFF7E7FB08B178
:10FC3000FCF772FD014BA2881A80E8E7E42000205F
:10FC40002429002038290020072808B51CD00A28BC
:10FC50000ED0042800D008BD114B13211888FFF7DF
:10FC600041FF30F00803F6D0BDE80840FCF754BD72
:10FC70000020FFF7C3FB80B9FFF78EFE50B9FFF7F6
:10FC800037FF0028F0D108BD01F09CFC30F00803DC
:10FC9000EAD108BDFCF740FDF1E7FCF73DFDEBE7DD
:10FCA000E420002008B530B1032803D10220FFF77B
:10FCB000A5FB50B908BDFFF7A1FB50B9FFF76CFEDB
:10FCC00068B9FFF715FF0028F4D0BDE80840FCF73D
:10FCD00023BDFCF721FDFFF75FFE0028F1D0FCF704
:10FCE0001BFDEEE730B50023A9B01846894A05216F
:10FCF000FDF7A6F808B1FCF70FFD874A87480121F8
:10FD0000FDF7F8F8864A87480121FDF7F3F8864A9F
:10FD100040F6CD410320FFF775FD08B1FCF7FCFC70
:10FD20001AA90020FFF798FE08B1FCF7F5FC7F4BFD
:10FD30009DF868501A687E4928ACA5F1020544F880
:10FD4000702DB5FA85F50023482220466D0902F092
:10FD5000ADFE08B1FCF7E0FC1AAA0121002002F078
:10FD600009FF08B1FCF7D8FC724802F01BFF08B18C
:10FD7000FCF7D2FC9DF874301AA843F001038DF80B
:10FD8000743002F019FF08B1FCF7C6FC6A4802F0B3
:10FD9000C5FE08B1FCF7C0FC684802F0C9FE08B116
:10FDA000FCF7BAFC8DF83050FEF7B0FD08B1FCF757
:10FDB000B3FC204602F056F808B1FCF7ADFC052272
:10FDC00000210DF16D00FCF7ADFB9DF86D305C4A34
:10FDD0001A9243F00103032203F0FD0362F30613BA
:10FDE00007206FF3C713102501228DF86E001AA9A2
:10FDF00054488DF86D308DF86F508DF86C2002F0FE
:10FE0000C3F808B1FCF788FC11234F488DF8303057
:10FE100002F01AFF4C4982B22046FFF767FE08B194
:10FE2000FCF77AFC082200211AA8FCF77BFB474B61
:10FE30001A931AA84FF0C8731B93FFF755FE08B129
:10FE4000FCF76AFC424800F0A9F8424800F022FAA8
:10FE5000382200212046FCF765FB022506232422D8
:10FE6000002103A88DF830508DF83330FCF75AFB91
:10FE70004FF49670B42301253822002107901AA868
:10FE800008938DF81850FCF74DFB00232046009393
:10FE9000314C324BADF8785003AA1AA91F9401F0E7
:10FEA0000BFA08B1FCF738FC1C2200211AA8FCF759
:10FEB00039FB00232A4A1A93ADF876308DF8783052
:10FEC000284B4FF420354FF4702403211AA8CDE9B4
:10FED0001B548DF87410CDE91F2301F045FC08B1C7
:10FEE000FCF71AFC00224FF420311F48FDF714F8EC
:10FEF00000224FF480411D48FDF70EF8032001F069
:10FF000091FA18B9FFF7F6FD0028FBD0FCF704FCC6
:10FF1000F8E700BFE82300205DFB0100E42C0200AD
:10FF200015FB0100E02C020049FC0100DC2C020062
:10FF3000B0250020E81F0020E9FB0100B1FB010013
:10FF4000FDFA01001C260020E82C020028005000C9
:10FF50002429002038290020E0200020A5FC0100F1
:10FF6000C5FB010011FB010020260020FC2500201C
:10FF7000A0DF7047A2DF7047A6DF704763DF7047DE
:10FF80000B88102B06D0112B03D14FF6FF73038083
:10FF9000704770478B880380704700BF2DE9F0439E
:10FFA000774C804694E80F009BB006AD85E80F00C3
:10FFB00045F2701328460DF10A01ADF80830FFF73D
:10FFC000DDFF002840F0D98042464FF6FF7322F84B
:10FFD000023B02A90120FFF7CBFF08B1FCF79CFB15
:10FFE00094E80F000AAD85E80F0045F2711328462A
:10FFF0000DF10E01ADF80C30FFF7C0FF002840F006
:020000022000DC
:10000000B9801C22002113A8FCF78CFA9DF84C3013
:1000100043F002036FF3C3030322002168468DF807
:100020004C30FCF77FFA9DF802C09DF84C30CDF8BB
:1000300060D0012701AE67F3420C43F0100341F298
:1000400011190322002130468DF802C08DF84C3082
:10005000ADF80090FCF766FA9DF80630ADF8049014
:1000600067F34203142200210EA88DF80630FCF736
:1000700059FA444B0F9693E803000DF1100989E8F3
:1000800003004FF0080C03AF0EAA13A908F10403F4
:10009000B8F80200CDF848900E97ADF844C0ADF81E
:1000A00040C0FFF767FF08B1FCF736FB94E80F008C
:1000B00085E80F0045F2721328460DF11201ADF8E4
:1000C0001030FFF75BFF002851D11C22002113A83C
:1000D000FCF728FA9DF84C3043F002036FF3C3039A
:1000E0000322002168468DF84C30FCF71BFA9DF87E
:1000F00002009DF84C30CDF860D0012464F342003A
:1001000043F0100341F21115032200218DF8020083
:1001100030468DF84C30ADF80050FCF703FA9DF8EE
:100120000630ADF8045064F34203142200210EA8F7
:100130008DF806300325FCF7F5F900240EAA13A963
:1001400008F10C03B8F802001297CDE90E96ADF84D
:100150004450ADF84050ADF80C408DF80E40FFF71C
:1001600009FF08B1FCF7D8FA1BB0BDE8F083FCF733
:10017000D3FAAAE7FCF7D0FA43E7FCF7CDFA23E776
:10018000F42C0200042D020002884FF6FF739A42FD
:100190001ED070B5044686B00D46082302A8102272
:1001A0000021ADF80630FCF7BDF9A688208805953A
:1001B00000220DF1060302A90124ADF808608DF8B4
:1001C0000A40ADF80C200493FFF7D6FE06B070BDD0
:1001D000704700BF02884FF6FF739A421ED070B579
:1001E000044686B00D46032302A810220021ADF874
:1001F0000630FCF797F9A6892088059500220DF1B5
:10020000060302A90124ADF808608DF80A40ADF894
:100210000C200493FFF7B0FE06B070BD704700BF1E
:10022000A0DF7047A2DF7047A4DF704763DF70472D
:100230000B88112B27D0502B05D0102B00D07047E6
:100240008B880380704700B585B004AA022342F86A
:10025000083D8188008801AB0393FFF7E5FFB0B943
:100260009DF8043063B14FF0A042D2F80435D94371
:1002700001F4002103F40023C2F80815C2F80C357C
:1002800005B05DF804FB4FF6FF7303807047FCF781
:1002900043FAE5E7F0B5434C064694E80F009BB0FF
:1002A00006AD85E80F0045F2751328460DF11201E1
:1002B000ADF81030FFF7BAFF002870D132464FF684
:1002C000FF7322F8023B04A90120FFF7A9FF08B140
:1002D000FCF722FA94E80F000AAC84E80F0045F21C
:1002E000761320460DF11601ADF81430FFF79EFF8E
:1002F000002851D11C22002113A8FCF713F99DF806
:100300004C3002AC03F0FD0343F008032046032207
:1003100000218DF84C30FCF705F99DF80A109DF886
:100320004C301894012464F3420103AF6FF30413BB
:1003300041F2111503228DF80A10384600218DF87C
:100340004C30ADF80850FCF7EDF89DF80E30ADF8E4
:100350000C5064F34203142200211AAC0EA88DF84D
:100360000E30FCF7DFF8002324F8643D02250DF180
:10037000140C0EAA13A9331D70880F971294CDF890
:1003800038C0ADF84450ADF84050FFF74BFF08B10E
:10039000FCF7C2F91BB0F0BDFCF7BEF9AAE7FCF709
:1003A000BBF98BE70C2D020071DF704772DF7047DD
:1003B00079DF70477DDF704765DF70472DE9F04FCB
:1003C00085B004880E9FBDF83C903D880195002CB7
:1003D00000F0A8804FF0000893468A46064644463F
:1003E00003E03288013494422BDA726852F8240018
:1003F000039000220DF10B0103A8FFF7DDFF054676
:1004000000286CD19DF80B20022AEAD13A88911C71
:10041000B8F1000F67D0894572DB1A440DF10B016A
:1004200003A8FFF7C9FF4FF001080546002856D181
:1004300039889DF80B200A443A803288013494426E
:10044000D3DB3C88B8F1000F08D00199621E521A24
:1004500092B2FF2A54D85A543C883288002A61D07C
:100460004FF0000AD04604E0328808F101089045B8
:100470002BDA726852F82800039000220DF10B016C
:1004800003A8FFF799FF054648BB9DF80B20102AEB
:10049000EAD13A8802F11001BAF1000F35D049458E
:1004A0002EDC1A440DF10B0103A84FF0010AFFF7EF
:1004B00083FF002838D139889DF80B200A443A8000
:1004C000328808F101089045D3DBBAF1000F29D03A
:1004D0003A88013A121B92B2FF2A11D81A552846BF
:1004E00005B0BDE8F08F511C0432914589B207DB9D
:1004F000398003F801A03A88013292B23A808CE741
:100500000C25284605B0BDE8F08F511C12329145EC
:1005100089B2F5DB398003F801B03A88013292B232
:100520003A80BEE70025DAE70546D8E72DE9F0472F
:10053000002317881380436B86B0A3B1022F40F2CB
:100540008D8102251C780D70138801339BB2112513
:100550001380CD54138801339BB21380CC5413887D
:1005600001339BB21380046B002C70D003F1120591
:10057000BD4200F273811125CD54138801339BB223
:1005800010251380CD54138801339BB21380E57B73
:10059000CD54138801339BB21380A57BCD541388AF
:1005A00001339BB21380657BCD54138801339BB21A
:1005B0001380257BCD54138801339BB21380E57AD9
:1005C000CD54138801339BB21380A57ACD54138880
:1005D00001339BB21380657ACD54138801339BB2EB
:1005E0001380257ACD54138801339BB21380E579AB
:1005F000CD54138801339BB21380A579CD54138851
:1006000001339BB213806579CD54138801339BB2BB
:1006100013802579CD54138801339BB21380E5787C
:10062000CD54138801339BB21380A578CD54138821
:1006300001339BB213806578CD54138801339BB28C
:1006400013802478CC54138801339BB2138090F824
:100650002E40002C40F0FF80144690F82D200D46CF
:100660000646002A40F0FE80B278002A40F052810F
:10067000F278A2B1D91CB94200F2F0800221E9540B
:10068000238801339BB201212380E95423880B4442
:100690009BB22380EA5423880B449BB22380726868
:1006A000AAB1D91CB94200F2D980022192F90020E6
:1006B000E954238801339BB20A212380E95423881B
:1006C00001339BB22380EA5423880133238033898A
:1006D000002B40F00381338A002B40F00C81338BD8
:1006E000002B40F03781306A002847D0B4F800C0B2
:1006F0000CF10603BB4200F2B1800388052B40F2E7
:1007000007816FF4486803EB080292B24FF27D3123
:100710008A4240F2FD804288052A40F2F9806FF457
:10072000486E96441FFA8EFE8E4540F2F1804FF6D9
:10073000FF718B4204D08A4202D0934200F2E880DB
:10074000052305F80C30238801339BB21222238045
:10075000EA54238801339BB223800288EA542B4455
:10076000120A5A70238802339BB223804288EA54CB
:100770002B44120A5A70238802332380736A002B99
:100780002FD09988B4F800C0881C0CF102020244F2
:10079000BA4263D8FE2861D8033105F80C102288CC
:1007A000013292B2FF212280A9542288013292B2F2
:1007B00022801988A9542A44090A517020880230DD
:1007C00080B220809A8862B199680393002900F072
:1007D0009F80284402F02DFA039B9A8823881344B3
:1007E000238096F82C30002B40F0D98030780028F8
:1007F00035D03388012B00F08B80228802F1020C67
:10080000BC452BD8012804D17378023313449F428E
:1008100024D3BB1E9B1A06A99BB221F8083D05EB09
:100820000C00FFF7C7FDD0B93278022A00F003812F
:10083000012A00F008810821FE2B0FD822885E1CB7
:10084000AE542288013292B22280A9542288013209
:100850001344238003E0DD1CBD422CD90C2006B0DC
:10086000BDE8F0870933BB42F8D804A8FFF79CFD28
:100870000028F4D123880822CA54238801339BB26C
:100880001B222380CA542088013080B22080062297
:1008900008440DF1110102F0CCF923889DF81020D5
:1008A00006339BB2238002B10122EA54238801332C
:1008B0009BB22380D8E60225CD54138801339BB226
:1008C0001C251380CD54138801339BB2013C138047
:1008D000032C1DD8DFE804F0605D5A4BCDE90047DA
:1008E0002B460622022106F10800FFF767FD0028CB
:1008F0003FF4F1AEB3E7CDE900472B4607220321D1
:1009000006F11000FFF75AFD00283FF4E8AEA6E715
:100910000720A4E70433BB42A0D804A8FFF748FD92
:1009200000289CD12388BDF810200321E954238896
:1009300001339BB219212380E954238801339BB2F0
:10094000E9182380EA54130A4B70238802339BB2C0
:1009500023808DE6CDE900472B461522142106F1B0
:100960001800FFF72BFD00283FF4BDAE77E7032406
:10097000CC54138801339BB21380144690F82D2079
:100980000D460646002A3FF46FAE6BE70224CC54B6
:10099000EFE70124CC54ECE70024CC54E9E7D6F887
:1009A0002890B9F1000FB3D0B9F804200232FE2A22
:1009B0003FF654AF23884FF000084FF0160A01327B
:1009C000EA54238801339BB2238005F803A02388CF
:1009D00001339BB22380B9F80020EA542B44120A59
:1009E0005A70238802339BB22380B9F80410E818A8
:1009F0000A4661B1D9F808301946002B88D002F0B8
:100A000018F9B9F80420238813449BB2238008F115
:100A1000010896F82C205FFA88F8424508EB48094F
:100A20007FF6E4AEB26A02EB8909B9F8042002321B
:100A3000FE2AC4D912E7BDF810209342FFF4FBAEA2
:100A400013460921F8E672789342FFF4F4AE134698
:100A50000821F1E62DE9F04395B01F230D46ADF8CE
:100A60000E300446002800F00E81C3785B0740F189
:100A70000681466B0022ADF80C20002E00F0AB8101
:100A800033788DF81230032241F20213ADF81030A2
:100A90001646ADF80C20104605230421226B002ACF
:100AA00040F0FA8094F82E20002A40F0988194F8C3
:100AB0002D30002B40F05581A378002B40F084812D
:100AC000E378C3B1F01C1F2800F28181711C14AFC0
:100AD000B21C17FA81F1374414AE16FA82F24FF0C5
:100AE000020C86B2012007F840CCADF80C6001F88A
:100AF000400C02F8403C6268C2B1F71C1F2F00F2A4
:100B00006681701C14ABB11C13FA80F0334414AE30
:100B100016FA81F192F90020ADF80C7002260A272E
:100B200003F8406C00F8407C01F8402C2389002B2E
:100B300040F0B881238A002B40F0C381238B002B27
:100B400040F08581236A002B45D0BDF80C20971D0D
:100B50001F2F00F23C811988052940F290806FF424
:100B6000486801EB080080B24FF27D36B04240F297
:100B700086805888052840F282806FF4486C84444F
:100B80001FFA8CFCB4457AD94FF6FF76B14203D0F8
:100B9000B04201D0814272D814A98E18501C11FAAB
:100BA00080F04FF0050C911C06F840CC89B212265B
:100BB00000F8406CADF80C101888ADF80C7004AF5C
:100BC0007E1878540432000A707092B25B88BB546D
:100BD0003A441B0A5370666A96B3B188BDF80C306C
:100BE000881C9A1C87181F2F00F2F180FE2800F243
:100BF000EE8014AF1F44581C0DF1500C1CFA80F00D
:100C0000033107F8401CFF2100F8401CADF80C2010
:100C1000318892B204AFB818B954090A417004334C
:100C2000B28898B2ADF80C0052B1B16839B338440B
:100C300001F0FFFFBDF80C30B2881344ADF80C3062
:100C400094F82C10002940F04B812378002B40F0C1
:100C50009D8104ACDDB1EB788BB928460CA90DF170
:100C60000E02FFF763FC58B99DF80E300CAA20461F
:100C70009DF80C10FFF79AFB15B0BDE8F083072034
:100C800015B0BDE8F083ADF80C00002DE3D12B4684
:100C9000ADF80E502A46EAE714AE3044314411272D
:100CA00000F8407C102614A801F8406C1844D17B51
:100CB00000F8401C0146907B01F83F0C14A9194430
:100CC000507B01F83E0C14A91944107B01F83D0C2F
:100CD00014A91944D07A01F83C0C14A91944907A4B
:100CE00001F83B0C14A91944507A01F83A0C14A9E4
:100CF0001944107A01F8390C14A91944D07901F873
:100D0000380C14A91944907901F8370C14A9194426
:100D1000507901F8360C14A91944107901F8350CF2
:100D200014A91944D07801F8340C14A91944907806
:100D300001F8330C03F10E0114A8ADF80C100144B6
:100D4000507801F8400C03F10F0114A8ADF80C1015
:100D50000144127801F8402C3344ADF80C309EB2B7
:100D6000A0E606F109031F2B31D80CA8FFF71CFBE6
:100D7000002885D1BDF80C3014A95E1C9A1C92B2D3
:100D80000B4411FA86F604AFB81808211B2703F8A4
:100D9000401CADF80C200DF13101062206F8407C14
:100DA00001F047FFBDF80C209DF83010931D9BB259
:100DB000002940F0268114A8034403F8401CD31DE9
:100DC0009EB2ADF80C6077E6331D1F2B1CD90C20AA
:100DD00015B0BDE8F0833046022301215EE614AB76
:100DE000711C13FA81F13344022703F8407C1C2064
:100DF000F319013A01F8400C9BB2032A3FF63FAFCA
:100E0000DFE802F04A443E340CA8FFF7D1FA00288C
:100E10007FF436AFBDF80C30BDF8300014AE591C6D
:100E200016FA81F106EB030C9A1C043392B204AF5C
:100E30009EB24FF0030E19230CF840EC01F8403C31
:100E4000BB18010AB854ADF80C60597038E61F227F
:100E500003ABCDE90032142104AB152204F11800D4
:100E6000FFF7ACFA00283FF46DAE09E714AA13446B
:100E7000032203F8402CF31C9EB2ADF80C6016E67A
:100E800014AA1344022203F8402CF4E714AA1344D2
:100E9000012203F8402CEEE714AA1344002203F8C1
:100EA000402CE8E71F2203ABCDE90032022104AB5E
:100EB000062204F10800FFF781FA00283FF43AAE59
:100EC000DEE61F2203ABCDE90032032104AB07228B
:100ED00004F11000FFF772FA00283FF42FAECFE6BE
:100EE000D4F82880B8F1000F3FF4C9AEB8F8042058
:100EF0000232FE2A3FF66BAFBDF80C30002604AF7D
:100F00004FF016090DF1500C9C44581C01320DF1A4
:100F1000500E0CF8402C1EFA80F09A1C92B200F889
:100F2000409CADF80C20B8F80000B8543A44000AD0
:100F300050700433B8F804C09BB26246F818ADF89C
:100F40000C30BCF1000F11D0D8F808301946002B36
:100F50003FF495AE01F06DFEBDF80C30B8F80420FA
:100F600094F82C1013449BB2ADF80C300136F6B255
:100F70008E4206EB4608BFF468AEA26A02EB880810
:100F8000B8F804200232FE2ABCD920E72288012AC0
:100F90003FF475AEBDF80C20901C1F283FF617AF2C
:100FA000012B04D1637803441F2B3FF610AFC2F12D
:100FB0001D0314A99BB204AF21F8203D3844FFF76C
:100FC000F9F900287FF45CAE2278022A1FD0012AAA
:100FD00024D0ADF830300820FE2B3FF6F8AEBDF837
:100FE0000C2014AC511CA61814FA81F102321A44D8
:100FF000013306F8403C3C46ADF80C2001F8400CAB
:1010000028E614A90B44012103F8401CD7E6BDF8DB
:1010100030209342DDD313460920DDE76278934206
:10102000D7D3ADF8302013460820D5E773DF7047DB
:1010300074DF704730B5934C9348944D87B00722C6
:101040000021FBF76FFA236823F07F4323F0FF03AF
:101050007BB12B78012B50D0A278002A00F0F280CF
:10106000022B59D18A4B1B68002B4BD1894A137034
:101070001EE0A2782B78002A4AD0022BF2D0012B56
:101080004AD1637893B1804B5A78002A52D19A782A
:10109000002A4FD1DA78002A4CD11A79002A49D196
:1010A0005A79002A46D19B79002B43D102232B7019
:1010B000A3788BB1744B5A78002A3BD19A78002AD6
:1010C00038D1DA78002A35D11A79002A32D15A7902
:1010D000002A2FD19B796BBB237B03222A70002B24
:1010E00040F08C80237E04222A70002B40F0868002
:1010F000694A002313702B701CE0654B1B68002BA2
:1011000000F0D480634A01210820117098472B78A1
:10111000012BB6D0022BCBD0227B0AB9032BE1D016
:10112000227E0AB9042BE3D0594A126812B1033B5C
:10113000012B67D9594B00221A70182200216846EA
:10114000FBF7F0F9297800234A1E8DF8003001934F
:101150008DF808300393032A71D8DFE802F0452A9E
:1011600016024F4BE0691A79216AADF81000ADF80C
:101170001210002A6ED022781AB14A4A117800293A
:101180006CD0454B04221A7021E0454B60691A79F6
:101190002169ADF81200ADF81010002A56D022785F
:1011A0001AB1404A1178002939D03B4B03221A70FA
:1011B0000DE0D4E90132344937480191022401217C
:1011C00004708DF80010ADF81220ADF810306846AC
:1011D000FFF72CFF30B92E4B1B6813B12E4A107845
:1011E0009847002007B030BD274B2B4901930022C0
:1011F00001230B708DF800300492E8E7244B1A6845
:10120000002A97D02378002B94D0264B1B78002BF4
:1012100090D1224B01210720197090478DE7224A77
:1012200003930423D370104602238DF80830FFF790
:1012300011FC0028D6D1184B297805221A700029F4
:10124000C9D0C4E7022B7FF467AF45E71A7B002AB9
:10125000ABD0A4E71A7B002A93D08CE7124A039301
:101260000423D370104602238DF80830FFF7F2FBF9
:101270000028B7D1084B297806221A700029AAD075
:10128000A5E700BF44260020DC26002041260020E0
:10129000A8260020D826002040260020282700204D
:1012A000182700202927002068260020014A1370F3
:1012B000E7E600BFD82600202DE9F047DDF820E062
:1012C000002800F08D80002A00F08A80154606462E
:1012D0009C4688460FCD444FDFF840A1DFF840918F
:1012E0000FC70FCD0FC700242A68404B3A60214634
:1012F00007223F483F4DC9F800C0C3F800E08AF814
:101300000040FBF70FF93C4B3C4A1A603C4F9F6092
:10131000214638222846FBF705F906F1100393E829
:101320000300B278F3783778AA70EB7005F11003F8
:1013300096F801C02F7083E8030006F1080393E8D4
:10134000030005F1080706F1180387E8030093E896
:101350000300726A85F801C005F1180383E80300F1
:101360008AB1284B6B62706A274A9A608788018825
:1013700019809F803FB123468168C95C02F8011B38
:101380000133BB42F8D1B36AABB1204BAB62B06A58
:101390001F4A9A6084889C80018819803CB1002390
:1013A0008168C95C02F8011B0133A342F8D196F8A9
:1013B0002C3085F82C30336A33B1164B2B62326AED
:1013C0005188598012881A8073681BB1124B6B6068
:1013D00073686B6041460748BDE8F047FFF73ABBCA
:1013E0000E20BDE8F08700BF44260020A426002080
:1013F000DC26002068260020182700202C2700204B
:101400004C270020CC260020AC260020E42600201B
:10141000F02600201027002014270020412600205D
:10142000A826002010B582B002AC002344F8043D89
:101430000C4B18702046FDF74FFD08280CD028B93A
:10144000019B1BB9FFF7F6FD02B010BD064B012250
:1014500000201A7002B010BD2046FBF715FE0028D0
:10146000EED0EFE741260020A026002030B503880B
:10147000112B83B018D01B2B0AD0102B01D003B036
:1014800030BD837D012BFAD12E4B82881A80F6E77E
:10149000037A002BF3D12C4A1378013B032BEED8AF
:1014A000DFE803F04943263A264B81881A8827480B
:1014B000002391420370E2D102AC234A44F8043D78
:1014C000012320461370FDF707FD08281ED058B9E8
:1014D000019B4BB9FFF7AEFD0028D0D01C4B1B6819
:1014E000002BCCD09847CAE71A4B01221A70C6E7E6
:1014F00002AC002344F8043D174904232046032589
:101500000D701370FDF7E8FC0828E0D12046FBF7CA
:10151000BBFD0028DCD0DDE7104B0F4A1B68002024
:101520001070002BABD09847A9E702AC002344F819
:10153000043D0323C5E702AC002344F8043D022325
:10154000BFE700BFF8200020412600202927002007
:10155000A4260020A026002040260020A826002047
:101560000238012806D830B5144C237883B013B95B
:1015700003B030BD704702AD002345F8043D284656
:101580002370FDF7A9FC082811D060B9019B53B95D
:10159000FFF750FD0028EBD0094B1B68002BE7D06C
:1015A000984703B030BD0123237003B030BD2846F7
:1015B000FBF76AFD0028E9D0EAE700BFA02600207B
:1015C000A426002030B51D4B1B7883B03BB31C4BC9
:1015D0001A7822BB1B4A12781AB1FFF729FD04467C
:1015E000F0B9194A01240625104600211C70D57057
:1015F000FFF730FA044698B902AD45F8040D2846C5
:10160000FDF76AFC082812D068B9019B5BB9FFF7A7
:1016100011FD20B10D4B1B680BB1984700E0002471
:10162000204603B030BD0A4B01221A70F8E7284665
:10163000FBF72AFD0028E8D0E9E700BF4426002098
:10164000292700204126002068260020A42600200B
:10165000A026002075DF704776DF70477ADF70477D
:101660007BDF7047184B18884FF6FF73984220D0E5
:1016700010B5164A164C1378217B0133DBB2994220
:1016800082B013700CD2237C0021117093B963696E
:1016900023B102A8002200F8042D984702B010BD23
:1016A0000C49FFF7D7FF0028F8D0A369002BF4D12D
:1016B000F4E770473B21FFF7CFFF0028E7D0A3698D
:1016C000002BE4D09847E2E76E270020BC270020DB
:1016D00070270020B427002070B51D4B1D4A5B8881
:1016E0001188994282B00FD852889A420CD31A4B73
:1016F0005B6923B102A8012200F8042D9847174C1A
:101700000023237002B070BD144C22785AB1124BE2
:101710005B6923B102A8002200F8042D984700233A
:10172000237002B070BD0C4D0D48D5E90113067849
:101730000C48002E18BF1946FBF7EEFB0028EED030
:10174000AB69002BEBD098470023237002B070BD2B
:10175000AC270020B4270020702700206C27002031
:10176000BC2700208C270020F8B505460FCD144C6F
:10177000144F0FC4064695E80700002384E80700CD
:101780003B70B6B13068104B716803C3A3F1080019
:10179000FFF764FF90B90D490D4C0E4A0E48002327
:1017A0004FF6FF750D8023701946BDE8F840FBF732
:1017B000A1BB0548FFF754FF0028ECD0F8BD00BFDF
:1017C000702700206C270020B42700206E270020FF
:1017D000BC270020651602001C2D020070B503888E
:1017E000112B82B03BD024D9122B08D0502B04D11E
:1017F0003B4CC288E3899A4251D002B070BD083098
:1018000003C8384B384A83E8030011885B88994243
:1018100038D9364C2278002A50D0314B5B6923B13D
:1018200002A8002200F8042D98470023237002B07C
:1018300070BD102BE1D12E49294C2A4B2D4DE48946
:1018400000F118028088088092E80300002283E8F3
:1018500003002A70002CD0D1FFF73EFFCDE72449CA
:10186000244B25484FF6FF7400220C801A70FBF7BA
:10187000B9FB0028C1D01A4B9B69002BBDD09847FB
:1018800002B070BD52889A42C3D3154B5B6923B135
:1018900002A8012200F8042D9847144CC5E7038ADA
:1018A000022BAAD1837CDB07D6D41348FBF79AFB23
:1018B0000028A2D0A369002BE1D19EE7084D0D4876
:1018C000D5E9011306780C48002E18BF1946FBF71E
:1018D00023FB0028A9D0AB69002BA6D09847A4E72A
:1018E00070270020AC270020B42700206C270020A0
:1018F0006E270020BC2700208C2700207FDF704748
:1019000086DF7047A7DF7047A9DF7047AADF7047FF
:101910000020704700207047002070472DE9F041FB
:101920004278DFF8C8C002EBC20189000CEB01036A
:1019300007465C685CB153002B4D981805EB80009E
:10194000807A060641D40024A046264603E0264DB0
:10195000A04626465300134405EB83023146108906
:1019600023464246FFF7D0FF0B2808D0002848F254
:10197000410318BF1846012C0AD0BDE8F0817B78DE
:1019800003EB430305EB830318890123FFF7BCFF37
:101990007B7803EB430305EB83054FF6FF72288941
:1019A0000C21FFF7AFFF0028E7D043F20203984273
:1019B00016D0082814D043F20403984210D01128FE
:1019C00048F2410018BF0020D7E74006BBD42426C8
:1019D00006FB02C61FFA84F808365CF80140BAE735
:1019E00048F24100C9E700BF042800201028002069
:1019F0002DE9F0434B78304D89B003EB430305EB01
:101A0000830308AA0C461A2122F81E1D064601A9C6
:101A100018890323FFF77AFF18B1002009B0BDE849
:101A2000F0836078254FBDF802204FF024084FF076
:101A3000080918FB0090384401A901F0EBF880B9BF
:101A4000607800EB400305EB8305A97A11F00201F1
:101A5000E3D100EBC00007EB80004246FAF762FDDD
:101A6000DBE76378BDF80220DFF858C0144D03EBC4
:101A7000C3039B000321F950617801EBC10107EB1F
:101A800081013B445B684A60607818FB009001A9C3
:101A90003844002B08BF654601F0CBF8617801EBB4
:101AA000C10107EB8101424630463823A847002098
:101AB00009B0BDE8F08300BF0428002010280020F2
:101AC00055EC010069EB010038B54B780A4C03EB8B
:101AD000C3020D463823014604EB82002422FDF7A1
:101AE00031F940B96B7803EBC30304EB83046368FB
:101AF000013308BF606038BD102800202DE9F04D8B
:101B0000554F3C6892B0002C52D01A9C742C4FD880
:101B1000984693466FF0FF0300241A9A4F4DCDF874
:101B200024808A460646089201938DF8104002E010
:101B30000134072C3FD002AAA1B22846FCF7E8FFE7
:101B40000028F5D108220DEB0201304601F062F8C1
:101B50000028EDD1E4B2BAF1030F8DF8064019D098
:101B60003F4BA8EB0303C32B32D83E4807AA0368B8
:101B7000BBF1000F4FD0012101FA04F423EA040362
:101B800003602023BAF1020F1DD143F001038DF849
:101B9000103007E01A9B742B0CBF232343238DF8CE
:101BA000103007AA05923B685A4604A901A8984735
:101BB00012B0BDE8F08D9DF80640FF2CF8D0BAF1C8
:101BC000030FCDD1E6E743F002038DF81030E9E7CB
:101BD000254BA8EB03031B2B14D92448A8EB0003C7
:101BE000232B1DD8224B9A7A0121302300248DF813
:101BF000071012F002018DF810308DF8054022D048
:101C000007AABFE70AAA20230021099208938DF8AA
:101C1000051007AAB6E70121A1401942ABD1C7E7D9
:101C2000144A90454FF0400314D0134A52F8242030
:101C30009045BDD10E4AD17AA14207AAA2D1002176
:101C40008DF805109EE72422FAF76CFC9DF8103001
:101C500007AA97E74323A2E7DC27002004290020F6
:101C6000402800203C280020E827002010280020E1
:101C700004280020202D0200C027002000207047EB
:101C800000207047002070470020704738B54B781F
:101C90000A4C03EBC3020D463823014604EB8200D5
:101CA0002422FDF74FF840B96B7803EBC30304EB34
:101CB00083046368013308BF606038BD10280020CA
:101CC0002DE9F0414278DFF8C0C002EBC201890083
:101CD0000CEB010307465C685CB15300294D981872
:101CE00005EB8000807A060641D40024A0462646F3
:101CF00003E0244DA04626465300134405EB83021F
:101D00003146108923464246FFF7FEFD0B280BD0D3
:101D100020B9012C11D00020BDE8F081012C0CD09D
:101D200048F24100BDE8F0817B7803EB430305EB0B
:101D3000830318890123FFF7E7FD7B7803EB430357
:101D400005EB83054FF6FF7228890C21FFF7DAFDBA
:101D50000028E0D043F202039842E1D00828DFD007
:101D600043F204039842DBD01128D4D1D8E74006CF
:101D7000BBD4242606FB02C61FFA84F808365CF89A
:101D80000140BAE704280020102800202DE9F04384
:101D90004B78304D89B003EB430305EB830308AA6E
:101DA0000C461A2122F81E1D064601A91889032394
